{
  "contractName": "FiskContract",
  "abi": [
    {
      "inputs": [],
      "stateMutability": "nonpayable",
      "type": "constructor"
    },
    {
      "anonymous": false,
      "inputs": [
        {
          "indexed": false,
          "internalType": "uint256",
          "name": "electionId",
          "type": "uint256"
        },
        {
          "indexed": false,
          "internalType": "uint256",
          "name": "candidateId",
          "type": "uint256"
        },
        {
          "indexed": false,
          "internalType": "uint256",
          "name": "studentId",
          "type": "uint256"
        }
      ],
      "name": "VoteCast",
      "type": "event"
    },
    {
      "inputs": [
        {
          "internalType": "uint256",
          "name": "electionId",
          "type": "uint256"
        },
        {
          "internalType": "uint256",
          "name": "candidateId",
          "type": "uint256"
        },
        {
          "internalType": "uint256",
          "name": "userId",
          "type": "uint256"
        }
      ],
      "name": "vote",
      "outputs": [],
      "stateMutability": "nonpayable",
      "type": "function"
    },
    {
      "inputs": [
        {
          "internalType": "uint256",
          "name": "electionId",
          "type": "uint256"
        },
        {
          "internalType": "uint256",
          "name": "candidateId",
          "type": "uint256"
        }
      ],
      "name": "getVoteCount",
      "outputs": [
        {
          "internalType": "uint256",
          "name": "",
          "type": "uint256"
        }
      ],
      "stateMutability": "view",
      "type": "function",
      "constant": true
    },
    {
      "inputs": [
        {
          "internalType": "uint256",
          "name": "electionId",
          "type": "uint256"
        },
        {
          "internalType": "uint256",
          "name": "userId",
          "type": "uint256"
        }
      ],
      "name": "hasUserVoted",
      "outputs": [
        {
          "internalType": "bool",
          "name": "",
          "type": "bool"
        }
      ],
      "stateMutability": "view",
      "type": "function",
      "constant": true
    }
  ],
  "bytecode": "0x608060405234801561001057600080fd5b50336000806101000a81548173ffffffffffffffffffffffffffffffffffffffff021916908373ffffffffffffffffffffffffffffffffffffffff160217905550610693806100606000396000f3fe608060405234801561001057600080fd5b50600436106100415760003560e01c80638a6655d6146100465780639685413414610062578063de2e19a014610092575b600080fd5b610060600480360381019061005b91906103ad565b6100c2565b005b61007c60048036038101906100779190610400565b610278565b604051610089919061045b565b60405180910390f35b6100ac60048036038101906100a79190610400565b6102b4565b6040516100b99190610485565b60405180910390f35b60008054906101000a900473ffffffffffffffffffffffffffffffffffffffff1673ffffffffffffffffffffffffffffffffffffffff163373ffffffffffffffffffffffffffffffffffffffff1614610150576040517f08c379a000000000000000000000000000000000000000000000000000000000815260040161014790610523565b60405180910390fd5b60016000848152602001908152602001600020600082815260200190815260200160002060009054906101000a900460ff16156101c2576040517f08c379a00000000000000000000000000000000000000000000000000000000081526004016101b99061058f565b60405180910390fd5b6001806000858152602001908152602001600020600083815260200190815260200160002060006101000a81548160ff0219169083151502179055506002600084815260200190815260200160002060008381526020019081526020016000206000815480929190610233906105de565b91905055507f24930ecca7f60d4736cd965cb5522694ea4b32308405d3f88fea2f59eff63caa83838360405161026b93929190610626565b60405180910390a1505050565b600060016000848152602001908152602001600020600083815260200190815260200160002060009054906101000a900460ff16905092915050565b60008060009054906101000a900473ffffffffffffffffffffffffffffffffffffffff1673ffffffffffffffffffffffffffffffffffffffff163373ffffffffffffffffffffffffffffffffffffffff1614610345576040517f08c379a000000000000000000000000000000000000000000000000000000000815260040161033c90610523565b60405180910390fd5b60026000848152602001908152602001600020600083815260200190815260200160002054905092915050565b600080fd5b6000819050919050565b61038a81610377565b811461039557600080fd5b50565b6000813590506103a781610381565b92915050565b6000806000606084860312156103c6576103c5610372565b5b60006103d486828701610398565b93505060206103e586828701610398565b92505060406103f686828701610398565b9150509250925092565b6000806040838503121561041757610416610372565b5b600061042585828601610398565b925050602061043685828601610398565b9150509250929050565b60008115159050919050565b61045581610440565b82525050565b6000602082019050610470600083018461044c565b92915050565b61047f81610377565b82525050565b600060208201905061049a6000830184610476565b92915050565b600082825260208201905092915050565b7f536f6c6f20656c2061646d696e6973747261646f7220707565646520656a656360008201527f7574617220657374612066756e63696f6e000000000000000000000000000000602082015250565b600061050d6031836104a0565b9150610518826104b1565b604082019050919050565b6000602082019050818103600083015261053c81610500565b9050919050565b7f59612068617320766f7461646f20656e206573746120656c656363696f6e0000600082015250565b6000610579601e836104a0565b915061058482610543565b602082019050919050565b600060208201905081810360008301526105a88161056c565b9050919050565b7f4e487b7100000000000000000000000000000000000000000000000000000000600052601160045260246000fd5b60006105e982610377565b91507fffffffffffffffffffffffffffffffffffffffffffffffffffffffffffffffff820361061b5761061a6105af565b5b600182019050919050565b600060608201905061063b6000830186610476565b6106486020830185610476565b6106556040830184610476565b94935050505056fea26469706673582212205427f88f6f38c338049173059508d749d1efa22a70db75337cad63072544b16f64736f6c63430008130033",
  "immutableReferences": {},
  "source": "// SPDX-License-Identifier: MIT\r\npragma solidity ^0.8.6;\r\n\r\ncontract FiskContract {\r\n\r\n    // Cuenta propietaria del contrato \r\n    address owner;\r\n\r\n    // Campana -> Votante -> Voto (true o false)\r\n    mapping(uint256 => mapping(uint256 => bool)) private hasVoted;\r\n\r\n    // Campana -> Candidato -> Votos (Numeros)\r\n    mapping(uint256 => mapping(uint256 => uint256)) private voteCount;\r\n\r\n    // Evento\r\n    event VoteCast(uint256 electionId, uint256 candidateId, uint256 studentId);\r\n\r\n    constructor() {\r\n        owner = msg.sender;\r\n    }\r\n    \r\n    modifier onlyAdmin() {\r\n        require(\r\n            msg.sender == owner,\r\n            \"Solo el administrador puede ejecutar esta funcion\"\r\n        );\r\n        _;\r\n    }\r\n\r\n    function vote(\r\n        uint256 electionId,\r\n        uint256 candidateId,\r\n        uint256 userId\r\n    ) public onlyAdmin {\r\n        // Verificar que el votante no haya votado an\r\n        require(\r\n            !hasVoted[electionId][userId],\r\n            \"Ya has votado en esta eleccion\"\r\n        );\r\n\r\n        hasVoted[electionId][userId] = true;\r\n        voteCount[electionId][candidateId]++;\r\n\r\n        // Emitir un evento de voto\r\n        emit VoteCast(electionId, candidateId, userId);\r\n    }\r\n\r\n\r\n    function getVoteCount(uint256 electionId, uint256 candidateId)\r\n        public\r\n        onlyAdmin\r\n        view\r\n        returns (uint256)\r\n     {\r\n        return voteCount[electionId][candidateId];\r\n    }\r\n\r\n\r\n    function hasUserVoted(uint256 electionId, uint256 userId)\r\n        public\r\n        view\r\n        returns (bool)\r\n    {\r\n        return hasVoted[electionId][userId];\r\n    }\r\n\r\n}\r\n",
  "sourcePath": "D:\\Backend\\BlockChain\\evm-ethereum-ganache\\truffle-vote\\contracts\\FiskContract.sol",
  "compiler": {
    "name": "solc",
    "version": "0.8.19+commit.7dd6d404.Emscripten.clang"
  },
  "schemaVersion": "3.4.16",
  "updatedAt": "2024-11-26T04:37:15.639Z",
  "networkType": "ethereum",
  "devdoc": {
    "kind": "dev",
    "methods": {},
    "version": 1
  },
  "userdoc": {
    "kind": "user",
    "methods": {},
    "version": 1
  }
}